{
  "_format": "hh-sol-artifact-1",
  "contractName": "TaskContract",
  "sourceName": "contracts/TaskContract.sol",
  "abi": [
    {
      "anonymous": false,
      "inputs": [
        {
          "indexed": false,
          "internalType": "address",
          "name": "recipient",
          "type": "address"
        },
        {
          "indexed": false,
          "internalType": "uint256",
          "name": "taskId",
          "type": "uint256"
        }
      ],
      "name": "AddTask",
      "type": "event"
    },
    {
      "anonymous": false,
      "inputs": [
        {
          "indexed": false,
          "internalType": "uint256",
          "name": "taskId",
          "type": "uint256"
        },
        {
          "indexed": false,
          "internalType": "bool",
          "name": "isDeleted",
          "type": "bool"
        }
      ],
      "name": "DeleteTask",
      "type": "event"
    },
    {
      "inputs": [
        {
          "internalType": "string",
          "name": "taskText",
          "type": "string"
        },
        {
          "internalType": "bool",
          "name": "isDeleted",
          "type": "bool"
        },
        {
          "internalType": "uint8",
          "name": "priority",
          "type": "uint8"
        }
      ],
      "name": "addTask",
      "outputs": [],
      "stateMutability": "nonpayable",
      "type": "function"
    },
    {
      "inputs": [
        {
          "internalType": "uint256",
          "name": "taskId",
          "type": "uint256"
        },
        {
          "internalType": "bool",
          "name": "isDeleted",
          "type": "bool"
        }
      ],
      "name": "deleteTask",
      "outputs": [],
      "stateMutability": "nonpayable",
      "type": "function"
    },
    {
      "inputs": [
        {
          "internalType": "uint8",
          "name": "priorityFilter",
          "type": "uint8"
        }
      ],
      "name": "getMyTasks",
      "outputs": [
        {
          "components": [
            {
              "internalType": "uint256",
              "name": "id",
              "type": "uint256"
            },
            {
              "internalType": "address",
              "name": "username",
              "type": "address"
            },
            {
              "internalType": "string",
              "name": "taskText",
              "type": "string"
            },
            {
              "internalType": "bool",
              "name": "isDeleted",
              "type": "bool"
            },
            {
              "internalType": "uint8",
              "name": "priority",
              "type": "uint8"
            }
          ],
          "internalType": "struct TaskContract.Task[]",
          "name": "",
          "type": "tuple[]"
        }
      ],
      "stateMutability": "view",
      "type": "function"
    }
  ],
  "bytecode": "0x608060405234801561001057600080fd5b506110aa806100206000396000f3fe608060405234801561001057600080fd5b50600436106100415760003560e01c8063609d56ed14610046578063aaba290714610062578063da2e04ea1461007e575b600080fd5b610060600480360381019061005b9190610a45565b6100ae565b005b61007c60048036038101906100779190610aac565b6102bd565b005b61009860048036038101906100939190610ae8565b6103c5565b6040516100a59190610cfe565b60405180910390f35b60018160ff16101580156100c6575060038160ff1611155b610105576040517f08c379a00000000000000000000000000000000000000000000000000000000081526004016100fc90610d20565b60405180910390fd5b60008080549050905060006040518060a001604052808381526020013373ffffffffffffffffffffffffffffffffffffffff16815260200186815260200185151581526020018460ff1681525090806001815401808255809150506001900390600052602060002090600402016000909190919091506000820151816000015560208201518160010160006101000a81548173ffffffffffffffffffffffffffffffffffffffff021916908373ffffffffffffffffffffffffffffffffffffffff16021790555060408201518160020190805190602001906101e89291906108b1565b5060608201518160030160006101000a81548160ff02191690831515021790555060808201518160030160016101000a81548160ff021916908360ff1602179055505050336001600083815260200190815260200160002060006101000a81548173ffffffffffffffffffffffffffffffffffffffff021916908373ffffffffffffffffffffffffffffffffffffffff1602179055507f1f54e1ba1832d428fbd7e7792beaf62b1fc5a382c207ffd614209c1413e94fda33826040516102af929190610cd5565b60405180910390a150505050565b3373ffffffffffffffffffffffffffffffffffffffff166001600084815260200190815260200160002060009054906101000a900473ffffffffffffffffffffffffffffffffffffffff1673ffffffffffffffffffffffffffffffffffffffff1614156103c157806000838154811061035f577f4e487b7100000000000000000000000000000000000000000000000000000000600052603260045260246000fd5b906000526020600020906004020160030160006101000a81548160ff0219169083151502179055507ff88a35c3d2016c409a46570b994a17b408dbc83c14a03f521512d50b85386d0682826040516103b8929190610d40565b60405180910390a15b5050565b60606000808054905067ffffffffffffffff81111561040d577f4e487b7100000000000000000000000000000000000000000000000000000000600052604160045260246000fd5b60405190808252806020026020018201604052801561044657816020015b610433610937565b81526020019060019003908161042b5790505b5090506000805b600080549050811015610783573373ffffffffffffffffffffffffffffffffffffffff166001600083815260200190815260200160002060009054906101000a900473ffffffffffffffffffffffffffffffffffffffff1673ffffffffffffffffffffffffffffffffffffffff1614801561052457506000151560008281548110610501577f4e487b7100000000000000000000000000000000000000000000000000000000600052603260045260246000fd5b906000526020600020906004020160030160009054906101000a900460ff161515145b801561059b575060008560ff16148061059a57508460ff1660008281548110610576577f4e487b7100000000000000000000000000000000000000000000000000000000600052603260045260246000fd5b906000526020600020906004020160030160019054906101000a900460ff1660ff16145b5b1561077057600081815481106105da577f4e487b7100000000000000000000000000000000000000000000000000000000600052603260045260246000fd5b90600052602060002090600402016040518060a0016040529081600082015481526020016001820160009054906101000a900473ffffffffffffffffffffffffffffffffffffffff1673ffffffffffffffffffffffffffffffffffffffff1673ffffffffffffffffffffffffffffffffffffffff16815260200160028201805461066390610ebc565b80601f016020809104026020016040519081016040528092919081815260200182805461068f90610ebc565b80156106dc5780601f106106b1576101008083540402835291602001916106dc565b820191906000526020600020905b8154815290600101906020018083116106bf57829003601f168201915b505050505081526020016003820160009054906101000a900460ff161515151581526020016003820160019054906101000a900460ff1660ff1660ff1681525050838381518110610756577f4e487b7100000000000000000000000000000000000000000000000000000000600052603260045260246000fd5b6020026020010181905250818061076c90610f1f565b9250505b808061077b90610f1f565b91505061044d565b5060008167ffffffffffffffff8111156107c6577f4e487b7100000000000000000000000000000000000000000000000000000000600052604160045260246000fd5b6040519080825280602002602001820160405280156107ff57816020015b6107ec610937565b8152602001906001900390816107e45790505b50905060005b828110156108a557838181518110610846577f4e487b7100000000000000000000000000000000000000000000000000000000600052603260045260246000fd5b6020026020010151828281518110610887577f4e487b7100000000000000000000000000000000000000000000000000000000600052603260045260246000fd5b6020026020010181905250808061089d90610f1f565b915050610805565b50809350505050919050565b8280546108bd90610ebc565b90600052602060002090601f0160209004810192826108df5760008555610926565b82601f106108f857805160ff1916838001178555610926565b82800160010185558215610926579182015b8281111561092557825182559160200191906001019061090a565b5b5090506109339190610981565b5090565b6040518060a0016040528060008152602001600073ffffffffffffffffffffffffffffffffffffffff16815260200160608152602001600015158152602001600060ff1681525090565b5b8082111561099a576000816000905550600101610982565b5090565b60006109b16109ac84610d8e565b610d69565b9050828152602081018484840111156109c957600080fd5b6109d4848285610e7a565b509392505050565b6000813590506109eb8161102f565b92915050565b600082601f830112610a0257600080fd5b8135610a1284826020860161099e565b91505092915050565b600081359050610a2a81611046565b92915050565b600081359050610a3f8161105d565b92915050565b600080600060608486031215610a5a57600080fd5b600084013567ffffffffffffffff811115610a7457600080fd5b610a80868287016109f1565b9350506020610a91868287016109dc565b9250506040610aa286828701610a30565b9150509250925092565b60008060408385031215610abf57600080fd5b6000610acd85828601610a1b565b9250506020610ade858286016109dc565b9150509250929050565b600060208284031215610afa57600080fd5b6000610b0884828501610a30565b91505092915050565b6000610b1d8383610c32565b905092915050565b610b2e81610e25565b82525050565b610b3d81610e25565b82525050565b6000610b4e82610dcf565b610b588185610df2565b935083602082028501610b6a85610dbf565b8060005b85811015610ba65784840389528151610b878582610b11565b9450610b9283610de5565b925060208a01995050600181019050610b6e565b50829750879550505050505092915050565b610bc181610e37565b82525050565b610bd081610e37565b82525050565b6000610be182610dda565b610beb8185610e03565b9350610bfb818560208601610e89565b610c0481610ff5565b840191505092915050565b6000610c1c601683610e14565b9150610c2782611006565b602082019050919050565b600060a083016000830151610c4a6000860182610ca8565b506020830151610c5d6020860182610b25565b5060408301518482036040860152610c758282610bd6565b9150506060830151610c8a6060860182610bb8565b506080830151610c9d6080860182610cc6565b508091505092915050565b610cb181610e63565b82525050565b610cc081610e63565b82525050565b610ccf81610e6d565b82525050565b6000604082019050610cea6000830185610b34565b610cf76020830184610cb7565b9392505050565b60006020820190508181036000830152610d188184610b43565b905092915050565b60006020820190508181036000830152610d3981610c0f565b9050919050565b6000604082019050610d556000830185610cb7565b610d626020830184610bc7565b9392505050565b6000610d73610d84565b9050610d7f8282610eee565b919050565b6000604051905090565b600067ffffffffffffffff821115610da957610da8610fc6565b5b610db282610ff5565b9050602081019050919050565b6000819050602082019050919050565b600081519050919050565b600081519050919050565b6000602082019050919050565b600082825260208201905092915050565b600082825260208201905092915050565b600082825260208201905092915050565b6000610e3082610e43565b9050919050565b60008115159050919050565b600073ffffffffffffffffffffffffffffffffffffffff82169050919050565b6000819050919050565b600060ff82169050919050565b82818337600083830152505050565b60005b83811015610ea7578082015181840152602081019050610e8c565b83811115610eb6576000848401525b50505050565b60006002820490506001821680610ed457607f821691505b60208210811415610ee857610ee7610f97565b5b50919050565b610ef782610ff5565b810181811067ffffffffffffffff82111715610f1657610f15610fc6565b5b80604052505050565b6000610f2a82610e63565b91507fffffffffffffffffffffffffffffffffffffffffffffffffffffffffffffffff821415610f5d57610f5c610f68565b5b600182019050919050565b7f4e487b7100000000000000000000000000000000000000000000000000000000600052601160045260246000fd5b7f4e487b7100000000000000000000000000000000000000000000000000000000600052602260045260246000fd5b7f4e487b7100000000000000000000000000000000000000000000000000000000600052604160045260246000fd5b6000601f19601f8301169050919050565b7f496e76616c6964207072696f72697479206c6576656c00000000000000000000600082015250565b61103881610e37565b811461104357600080fd5b50565b61104f81610e63565b811461105a57600080fd5b50565b61106681610e6d565b811461107157600080fd5b5056fea2646970667358221220fcf14e51b62cf88c4c11799e2d06344ad61e2ed4eb459f5fdb35abef26c1f47164736f6c63430008040033",
  "linkReferences": {},
  "deployedLinkReferences": {}
}